:100000000C9477030C9451040C9494030C94940373
:100010000C9494030C9494030C9494030C94940304
:100020000C9494030C9494030C9494030C949403F4
:100030000C9494030C9494030C9494030C949403E4
:100040000C9494030C9494030C9494030C949403D4
:100050000C9494030C9494030C9494030C949403C4
:100060000C9494030C9494030C9494030C949403B4
:10007000084AD73B3BCE016E84BCBFFDC12F3D6C0F
:1000800074319ABD56833DDA3D00C77F11BED9E475
:10009000BB4C3E916BAAAABE000000803F0000004E
:1000A0000000005C00000C000C007C287C2858DC60
:1000B00068002410480028542840000C00000078F4
:1000C00084008478000054385400107C1000804074
:1000D0000000101010000040000060100C003854A8
:1000E0003800487C40004864580044542C001C10E0
:1000F0007C005C5424003854240064140C006854C0
:100100002C004854380000480000804800001028A7
:1001100044002828280044281000045408003844CB
:100120005C00781478007C542800384428007C4413
:1001300038007C5444007C140400384474007C1063
:100140007C00447C440020403C007C106C007C40DF
:1001500040007C187C0078103C00384438007C1447
:1001600008003844B8007C14680048542400047C1B
:1001700004007C407C003C603C007C307C006C10C7
:100180006C000C700C0064544C00007C44000C109B
:100190006000447C000008040800808080000004A7
:1001A0000800304878007C4830003048480030482B
:1001B0007C00306850001078140090A878007C080B
:1001C000700050744000808074007C106800447C93
:1001D0004000781078007808700030483000F82827
:1001E00010003048F8007810080050582800083CEB
:1001F000480038407800384038007820780048308F
:10020000480098A078004868580010788400007C66
:1002100000008478100008040804000000000000BA
:10022000005F00000007000700147F147F14242AD9
:100230007F2A1223130864623649552250000503B1
:100240000000001C2241000041221C00082A1C2A38
:100250000808083E08080050300000080808080890
:10026000006060000020100804023E5149453E0035
:10027000427F400042615149462141454B311814AB
:10028000127F1027454545393C4A494930017109DB
:1002900005033649494936064949291E00363600C4
:1002A00000005636000000081422411414141414DF
:1002B00041221408000201510906324979413E7E6B
:1002C0001111117E7F494949363E414141227F410A
:1002D00041221C7F494949417F090901013E4141B1
:1002E00051327F0808087F00417F41002040413F94
:1002F000017F081422417F404040407F0204027F7A
:100300007F0408107F3E4141413E7F090909063EB6
:100310004151215E7F091929464649494931010168
:100320007F01013F4040403F1F2040201F7F201899
:10033000207F631408146303047804036151494562
:100340004300007F4141020408102041417F00002A
:100350000402010204404040404000010204002029
:10036000545454787F4844443838444444203844F2
:1003700044487F3854545418087E09010208145424
:10038000543C7F0804047800447D40002040443DF4
:1003900000007F10284400417F40007C041804784E
:1003A0007C0804047838444444387C141414080845
:1003B0001414187C7C080404084854545420043F46
:1003C0004440203C4040207C1C2040201C3C4030CD
:1003D000403C44281028440C5050503C4464544C39
:1003E00044000836410000007F000000413608004C
:1003F0000201030201000000000000000000065F8F
:100400005F060000000007070007070000147F7F59
:10041000147F7F1400242E6B6B3A12000046663066
:10042000180C666200307A4F5D377A480004070383
:100430000000000000001C3E63410000000041631A
:100440003E1C000000082A3E1C1C3E2A0808083EEC
:100450003E0808000000A0E0600000000008080856
:10046000080808000000006060000000006030180C
:100470000C060301003E7F594D7F3E000042427F43
:100480007F40400000627359496F66000022634953
:10049000497F360000181C16137F7F100027674520
:1004A000457D3900003C7E4B497930000003637183
:1004B000190F070000367F49497F360000064F4973
:1004C000693F1E000000006C6C0000000000A0EC02
:1004D0006C00000000081C36634100000014141476
:1004E0001414140000004163361C0800000203517C
:1004F000590F0600003E7F415D5D1F1E007C7E138C
:10050000137E7C0000417F7F49497F36001C3E639B
:100510004141632200417F7F41637F1C00417F7F17
:10052000495D416300417F7F491D0103001C3E631B
:1005300041517372007F7F08087F7F000000417F78
:100540007F41000000307040417F3F0100417F7FCC
:10055000081C776300417F7F41406070007F7F0609
:100560000C067F7F007F7F060C187F7F001C3E6398
:1005700041633E1C00417F7F49090F06001E3F2159
:10058000717F5E0000417F7F19396F460026674DFD
:10059000597B32000003417F7F410300007F7F4091
:1005A000407F7F00001F3F60603F1F00007F7F3063
:1005B00018307F7F0063771C081C776300074F7833
:1005C000784F0700006773594D47637100007F7FC4
:1005D00041410000000103060C1830600000414159
:1005E0007F7F000000080C0603060C080080808056
:1005F0008080808080000003070400000020745485
:10060000543C784000413F7F44447C3800387C446F
:10061000446C280000307848493F7F4000387C54C3
:10062000545C180000487E7F490302000098BCA477
:10063000A4F87C0400417F7F08047C780000447D9E
:100640007D4000000040C484FD7D000000417F7FAC
:1006500010386C440000417F7F400000007C7C0C1F
:10066000180C7C78007C7C04047C780000387C4486
:10067000447C38000084FCF8A4243C1800183C2476
:10068000A4F8FC8400447C78441C180000485C54A6
:10069000547424000000043E7F442400003C7C404D
:1006A000403C7C40001C3C60603C1C00003C7C608A
:1006B00030607C3C00446C3810386C44009CBCA01A
:1006C000A0FC7C00004C64745C4C64000008083E94
:1006D000774141000000000077770000004141773A
:1006E0003E08080000020301030203010000112478
:1006F0001FBECFEFD4E0DEBFCDBF12E0A0E0B1E07F
:10070000EAEEFAE202C005900D92A035B107D9F7E2
:1007100022E0A0E5B2E001C01D92A136B207E1F7E8
:100720000E94EF060C9473150C9400008D9A82EFD2
:100730008FBD89E18EBD80E09AE095BD84BD80E0EB
:1007400095E09BBD8ABD81B381BB939A0895CF93F9
:10075000DF931F92CDB7DEB719828068E0E0F4E145
:1007600080838FEF9FE20197F1F700C00000808146
:10077000898389810F90DF91CF91089580915102F3
:1007800090915202089590935202809351020895DD
:100790000E947B0743E46FEF8AE20E94AC0745EBBF
:1007A0006FEF89E20E94AC0741E06FEF88E20E94A0
:1007B000AC0740E060EE8FE00E94AC078EE00E9444
:1007C0005207807E41F086E091E09F938F930E94D4
:1007D00055120F900F90F8948BB780648BBF78946C
:1007E00085B7826085BF4FEF60E680E60E94AC0768
:1007F0004FEF63E080E30E94AC074FEF63E080E4DB
:100800000E94AC074FEF63E080E50E94AC070895BB
:10081000CF92DF92EF92FF921F93CF93DF936C0101
:1008200085E60E9452078F70F601828381E60E945E
:100830005207C82F82E60E9452072C2F30E0220F69
:10084000331F220F331F220F331F82958695877027
:10085000282BF6013183208382818823A9F0760139
:10086000F3E0EF0EF11C16E6C0E0D0E0812F0E940D
:100870005207F70181937F0121961F5FF601828164
:1008800090E0C817D90790F340E061E08CE20E9445
:10089000AC07DF91CF911F91FF90EF90DF90CF9049
:1008A00008951F920F920FB60F921124CF92DF92EC
:1008B000EF92FF920F931F932F933F934F935F936A
:1008C0006F937F938F939F93AF93BF93EF93FF9318
:1008D000CF93DF93CDB7DEB72B97DEBFCDBF8CE2D2
:1008E0000E9452078370D82E02E010E0EE24E394B9
:1008F000F12C8CE20E94520790E0002E02C09595E8
:1009000087950A94E2F780FF0BC040E0B701002E04
:1009100002C0660F771F0A94E2F78CE20E94AC07D0
:100920000F5F1F4F0530110521F7DD20E9F1CE01E2
:1009300001960E94080489819A81049731F481E02C
:1009400090E090935202809351028B81882339F179
:100950006E0124E0C20ED11C00E010E00F2EF7E281
:10096000EF2EF1E0FF2EF02DF60181916F019A81BB
:100970009F9399819F931F928F931F930F93FF9241
:10098000EF920E9455120F5F1F4F8B8190E00FB6C0
:10099000F894DEBF0FBECDBF0817190728F340E05B
:1009A00063E08CE20E94AC072B960FB6F894DEBF92
:1009B0000FBECDBFDF91CF91FF91EF91BF91AF916E
:1009C0009F918F917F916F915F914F913F912F9167
:1009D0001F910F91FF90EF90DF90CF900F900FBE7F
:1009E0000F901F901895CF93C82F8CE20E9452074A
:1009F000CE5F21E030E002C0220F331FCA95E2F73C
:100A0000282381E009F080E0CF910895EF92FF92D2
:100A10000F931F93CF93DF93EC0109C08091500295
:100A20008F5F80935002833010F0109250028091BB
:100A300050020E94F304882389F308811981EA8017
:100A4000609150026295607F6F5CC80196958795B2
:100A500096958795969587950E94630760915002B9
:100A60006295607F6E5C802F8295880F807E0E94E9
:100A70006307609150026295607F6B5C8E2D0E94CF
:100A80006307F12CE114F104B1F08E010D5F1F4FEB
:100A9000C0E0D0E0809150026C2F90E1899F600D02
:100AA00011246A5CF80181918F010E9463072196ED
:100AB000CE15DF0579F7809150020E949807DF91EB
:100AC000CF911F910F91FF90EF900895CF93DF93F7
:100AD00080E00E94A703C3E5D2E0888381E00E9402
:100AE000A7038983DF91CF91089588B3836088BB82
:100AF000B898949A8C980E9496030E94660508956F
:100B0000CF9380E00E94A703C82F81E00E94A70333
:100B1000982F8C2FCF9108950E948005292F482F60
:100B200050E06091530270E0CB010A9748175907D3
:100B30005CF434E6349FC001359F900D11240E946F
:100B4000E71042E9460F1AC0CB010A9684179507B1
:100B5000A4F4461B570B4A50510934E6349FC00198
:100B6000359F900D112445EF50E0FA01E61BF70B7D
:100B7000BF010E94E710462F01C040E030E08091A5
:100B80005402682F70E0CB010A97281739075CF4EC
:100B900054E6529FC001539F900D11240E94E7100C
:100BA00092E9960F1AC0CB010A9682179307A4F414
:100BB000261B370B2A50310954E6529FC001539F20
:100BC000900D112425EF30E0F901E61BF70BBF0172
:100BD0000E94E710962F01C090E0842F0895CF92D5
:100BE000DF92EF92FF921F93CF93DF930E948C05C9
:100BF000D82FC92F682F880F770B880B990B0E946D
:100C0000250F6B017C016C2F0C2E000C770B880BD1
:100C1000990B0E94250FA70196010E944D0ED1113C
:100C200003C0CC2309F463C02BED3FE049E450E45A
:100C30000E94B10E20E030E044E353E40E9409102A
:100C40006B017C0120E030E044E352E40E94FC0FA1
:100C500088235CF020E030E047E053E4C701B601B0
:100C60000E94AC0E88230CF444C020E030E047E042
:100C700053E4C701B6010E94FC0F88230CF03BC06F
:100C800020E030E047E053ECC701B6010E94AC0E13
:100C900018169CF520E030E047E053ECC701B601A0
:100CA0000E94FC0F181654F420E030E044E352ECAC
:100CB000C701B6010E94AC0E18160CF520E030E01A
:100CC00044E352ECC701B6010E94FC0F1816CCF4A5
:100CD00020E030E044E352E4C701B6010E94AC0ECC
:100CE000881F8827881F94E0981B892F0BC084E0F9
:100CF00009C080E007C082E005C082E003C081E057
:100D000001C084E0DF91CF911F91FF90EF90DF90C1
:100D1000CF900895EF92FF920F931F93CF93DF939D
:100D2000CDB7DEB72B970FB6F894DEBF0FBECDBFA1
:100D30000E948C05E82EF92E0E94EF05082F16B3AD
:100D400083E00E94A70322E030E03A832983EC820B
:100D5000FD820E8312701F83888785E08B83CE010E
:100D600001960E9406052B960FB6F894DEBF0FBEC3
:100D7000CDBFDF91CF911F910F91FF90EF9008951C
:100D800080B380710895CF93DF93EC0186E290E009
:100D90000E940F11BC01AE01DC01199620E030E089
:100DA00006C0FA019191AF019D932F5F3F4FFE0165
:100DB00001900020E9F73197EC1BFD0B2E173F0740
:100DC00080F3FB0111821082138212821582148239
:100DD000178216821086CB01DF91CF910895CF93B1
:100DE000DF93CDB7DEB72E970FB6F894DEBF0FBEF8
:100DF000CDBFFE0131968EE0DF011D928A95E9F7A5
:100E000083E08C838FE19EE09A87898783E29EE06E
:100E10009C878B87F0935E02E0935D020E94170E21
:100E20000E94270E0E947A0A0E94C8030E940B08A3
:100E30000E9475050E94BD0A0E947C0B18C025E027
:100E400044E150E063E070E08DE391E00E94470BE5
:100E500049E050E06CE170E089E390E00E94B20D5F
:100E600086E69EE90197F1F700000E94CD0A0E94F4
:100E7000C0068111E4CF9FEFAFEFB2E09150A040E8
:100E8000B040E1F700C000C081E591E00E946B1224
:100E90000E94570A86E69EE90197F1F700000E943A
:100EA000CD0AF6CFCF93C82FC49883E00E94110ECD
:100EB0008C2F0E94110E80E00E94110EC49A0E9495
:100EC000150ECF910895CF93DF93C82FD62FC498D6
:100ED00082E00E94110E8D2F0E94110E8C2F0E9415
:100EE000110EC49ADF91CF910895C49880EC0E94AE
:100EF000110EC49A089580E187BBC49A0E940B0E1C
:100F00000E9475078EE00E945207807E803851F063
:100F100087E691E09F938F930E9455120F900F9058
:100F200081E008956BE28DE10E94630780E00895FF
:100F3000C498813041F018F0823049F00BC081E84C
:100F40000E94110E07C082E80E94110E03C084E8BF
:100F50000E94110EC49A08951F93CF93DF93182F08
:100F6000D62FC42FC49885E00E94110E812F0E94B5
:100F7000110E8D2F0E94110E8C2F0E94110EC49AFB
:100F8000DF91CF911F9108950E947C0BE091550253
:100F9000F09156028281938124E040E050E060E0CD
:100FA00070E009960E94470B80915502909156027D
:100FB00025E04BE250E060E070E009960E94470BAC
:100FC00028E030E043E550E068E070E08BE290E03C
:100FD0000E94690CE0915502F09156028081918146
:100FE00024E04FE550E060E070E009960E94470B76
:100FF000E0915502F091560286819781009741F069
:1010000024E04BE250E062E070E009960E94470B5A
:101010000E94CD0A0895CF92DF92EF92FF920F9334
:101020001F93CF93DF9388E891E00E94C3068C0161
:1010300081E991E00E94C306EC018AE991E00E94F7
:10104000C3066C0183EA91E00E94C3067C018CEA2E
:1010500091E00E94C306FC01D8011196DC93CE9367
:101060001396DC92CE92129718961C9218971796A8
:10107000FC92EE92169715969C938E93149785E0AA
:10108000D70118968C93189715961C930E93149766
:101090001796FC93EE93169711961C921E92139638
:1010A0001C921E92129786E08087F582E482178355
:1010B0000683D982C8821B830A8381E08887F60170
:1010C00011830083D383C28382E0808717821682D4
:1010D000109356020093550284EB91E00E94C306E0
:1010E0008C018BEB91E00E94C306FC011F830E83F1
:1010F0001D830C83D8011596DC93CE931497179615
:10110000DC93CE93169711969C938E9313969C9393
:101110008E93129783E018968C93D583C483D783DC
:10112000C683118300831383028384E08087DF9169
:10113000CF911F910F91FF90EF90DF90CF90089586
:10114000813069F1F8F0823019F0833071F0089540
:10115000E0915502F091560282819381009759F1F6
:1011600090935602809355020895E0915502F091B4
:101170005602808191810097F1F0909356028093FE
:1011800055020895E0915502F091560284819581AF
:10119000009789F090935602809355020895E0914C
:1011A0005502F091560286819781009721F0909325
:1011B0005602809355020895FF920F931F93CF9389
:1011C000DF93CDB7DEB765970FB6F894DEBF0FBEDD
:1011D000CDBF182F0E947C0B2FEF8FEF92E0215094
:1011E00080409040E1F700C000C081E08C831D8307
:1011F00082E08B8383E090E09A838983CE0101961D
:101200000E9406050E9480056EE170E082E390E096
:101210000E94A10C0E94CD0A00E010E0FF24F3948C
:101220004DC00E94BE03892B09F446C00F5F1F4FBB
:101230000E947C0B25E049E150E060E070E081EC29
:1012400091E00E94470B25E04EE150E062E070E043
:1012500082ED91E00E94470B4AE0BE01645F7F4F40
:10126000C8010E94301225E04FE550E062E070E0D6
:101270000E94470B0E94CD0A80E090E00E94C303C9
:101280000E94C0068111FCCF2FEF8FEF92E021501A
:1012900080409040E1F700C000C0FC82CE01019682
:1012A0000E9406050E947C0B6EE170E082E390E0F4
:1012B0000E94A10C0E94CD0A0E948A060E94C006CC
:1012C0008111AFCF1C82CE0101960E9406052FEF3F
:1012D0008FEF92E0215080409040E1F700C000C0C5
:1012E00065960FB6F894DEBF0FBECDBFDF91CF91EC
:1012F0001F910F91FF9008950E947C0B28E040E021
:1013000050E060E070E080EE91E00E94470B25E045
:1013100042E050E061E070E080EF91E00E94470B16
:1013200025E042E050E062E070E082E092E00E945E
:10133000470B25E042E050E063E070E08FE092E090
:101340000E94470B27E030E044E750E067E070E0A0
:1013500080E090E00E94690C0E94CD0A2FEF8FEF91
:1013600092E0215080409040E1F700C000C00E9410
:10137000C0068111FCCF2FEF8FEF92E0215080400B
:101380009040E1F700C000C008950F931F93CF93E2
:10139000DF932FEF8FEF92E0215080409040E1F7F4
:1013A00000C000C00E947C0B24E045E050E060E0FB
:1013B00070E08DE192E00E94470B0E94CD0A2FEF72
:1013C0008FEF9EE0215080409040E1F700C0000088
:1013D00003E110E0C4E1D0E003C0219701501109FE
:1013E000CA30D105B1F40E9466054AE050E06EE1D2
:1013F00070E080E490E00E94B20D0E94CD0A2FEFD1
:101400008FEF92E0215080409040E1F700C000C093
:10141000E4CFAE016EE170E080E490E00E94B20D96
:101420000E94CD0A2FEF8FEF92E021508040904034
:10143000E1F700C000C0101611067CF224E049E17B
:1014400050E066E070E08BE392E00E94470B0E9460
:10145000CD0A2FEF8FEF9DE1215080409040E1F7C2
:1014600000C00000DF91CF911F910F910895E0918E
:101470005502F091560280858330B1F018F4823025
:1014800081F00895853019F0863031F0089580E0BC
:1014900090E00E94DC08089581E090E00E94DC0862
:1014A00008950E947C0908950E94C5090895CF936C
:1014B0000E94EF05C82F20E12A95F1F700C00E9495
:1014C000C006811102C00E94370AC43079F08C2F07
:1014D00090E00E94A0080E94C4078FEF9FE727E0DA
:1014E000815090402040E1F700C000000E94C407F6
:1014F000CF910895E0E0F0E18EEA808381EA808375
:101500008AED808382E1808388EC808388EA80830F
:101510008FE3808385ED808380E8808381E880830A
:1015200080E5808389ED808381E2808390E29083EF
:10153000108292E29083108297E0908380831082E1
:101540008FE780838BED808380E380838DEA8083C7
:10155000108284EA808386EA80838FEA80830895FC
:10156000E0E0F0E192E29083808387E0808381E293
:10157000808360838FE78083089560E080E00E942D
:10158000B00A80E894E0E0E0F2E110820197E9F728
:1015900060E080E00E94B00A089560E080E00E9470
:1015A000B00AE0E0F8E1A0E0B2E181918C93E115AE
:1015B0008CE1F807D1F70895EF92FF920F931F93F4
:1015C000CF93DF937695762F662777956795EB0116
:1015D000C40FD51F2530F1F02830C1F1243009F0B7
:1015E0004FC0082F10E0000F111F000F111F025EE7
:1015F0001F4F7E0184E0E80EF11CF8018491BE01CA
:1016000090E00E94310E21960F5F1F4FEC16FD06F1
:10161000A1F736C090E080978C01000F111F000FDA
:10162000111F080F191F065E1D4F7E01F5E0EF0E1A
:10163000F11CF8018491BE0190E00E94310E2196C8
:101640000F5F1F4FCE15DF05A1F71AC0082F10E05E
:10165000000F111F000F111F000F111F0B501D4F06
:101660007E01F8E0EF0EF11CF8018491BE0190E0DC
:101670000E94310E21960F5F1F4FEC16FD06A1F759
:10168000DF91CF911F910F91FF90EF900895AF924E
:10169000BF92CF92DF92EF92FF920F931F93CF935F
:1016A000DF93EC016B018A01A22EB12CE22EF12C0A
:1016B0000CC0FE01E80FF91F2A2DA801B601808198
:1016C0000E94DC0A0E0D1F1DB3948B2D90E0FE01CD
:1016D00001900020E9F73197EC1BFD0B8E179F0757
:1016E00040F3DF91CF911F910F91FF90EF90DF902A
:1016F000CF90BF90AF900895CF93DF93C0E0D0E03C
:10170000BE0180E090E00E94310E2196C11584E078
:10171000D807B1F7DF91CF9108950F931F93CF931F
:10172000DF939B0127703078332334F42150310943
:10173000286F3F6F2F5F3F4FEA0102C0CC0FDD1FC4
:101740002A95E2F79B01772314F4295F3F4F3595E3
:10175000279535952795359527953695322F22274C
:10176000379527958901080F191FC8010E94360E69
:101770004C2F409584238C2BB80190E00E94310EB1
:10178000DF91CF911F910F9108956F927F928F9269
:101790009F92AF92BF92CF92DF92EF92FF920F9300
:1017A0001F93CF93DF93EC017B014A01CA018C1B8D
:1017B0009D0B261B370B3AF4319521953109AA244C
:1017C000AA94BA2C03C0AA24A394B12C3901660CA4
:1017D000771C8301081B190BC815D905CCF4281BED
:1017E000390B6901CC0CDD1C41E050E0B701CE01A2
:1017F0000E948D0B101611062CF4EA0CFB1C0C0D2C
:101800001D1D02C0060D171D2196C815D90564F3CC
:10181000DF91CF911F910F91FF90EF90DF90CF90CC
:10182000BF90AF909F908F907F906F9008956F9230
:101830007F928F929F92AF92BF92CF92DF92EF9260
:10184000FF920F931F93CF93DF937C01EB014A012B
:101850006A01C81AD90A261B370BDD203CF4D19443
:10186000C194D108AA24AA94BA2C03C0AA24A39490
:10187000B12C3601660C771C8301021B130BC815B3
:10188000D905C4F4C21AD30ACC0CDD1C41E050E0E7
:10189000BE01C7010E948D0B101611062CF4EA0C34
:1018A000FB1C0C0D1D1D02C0060D171D2196C81531
:1018B000D90564F3DF91CF911F910F91FF90EF90C5
:1018C000DF90CF90BF90AF909F908F907F906F9060
:1018D0000895CF93DF93FA01D901261B370BA90195
:1018E00022F444275527421B530BEF01C81BD90B89
:1018F0009E0122F4222733272C1B3D0B421753074E
:101900007CF4E817F9073CF49B01AC01BD01CF0161
:101910000E94C50B13C09D01AF010E94C50B0EC0F4
:10192000A617B7073CF49B01AC01BD01CF010E9493
:10193000170C04C09D01AF010E94170CDF91CF91DD
:1019400008952F923F924F925F926F927F928F9263
:101950009F92AF92BF92CF92DF92EF92FF920F933E
:101960001F93CF93DF938C01EB016C018BE0C80ECA
:10197000D11C780189E0E80EF11C9B01A601C7018A
:101980000E94690C28018EE0480E511CBE016F5F59
:101990007F4F180186E0280E311C9B01A201C10176
:1019A0000E94690C48018FE0880E911CBE016E5F99
:1019B0007F4F380185E0680E711C9B01A401C301B3
:1019C0000E94690C580180E1A80EB11CBE016D5F38
:1019D0007F4F0C5F1F4F9B01A501C8010E94690C3E
:1019E000BE016C5F7F4F9B01A501C8010E94690C7D
:1019F000BE016B5F7F4F9B01A501C8010E94690C6E
:101A0000BE016A5F7F4F9B01A501C8010E94690C5E
:101A1000BE01695F7F4F9B01A401C3010E94690C55
:101A2000BE01685F7F4F9B01A201C1010E94690C4A
:101A3000BE01675F7F4F9B01A601C7010E94690C31
:101A4000BE01665F7F4F9B01A601C7010E94690C22
:101A5000BE01655F7F4F9B01A601C7010E94690C13
:101A6000BE01645F7F4F9B01A601C7010E94690C04
:101A7000DF91CF911F910F91FF90EF90DF90CF906A
:101A8000BF90AF909F908F907F906F905F904F909E
:101A90003F902F9008956F927F928F929F92AF9276
:101AA000BF92CF92DF92EF92FF920F931F93CF934B
:101AB000DF93EC018B017A0169015B01A20EB31E79
:101AC0004C01840E951E41E050E0B501C4010E9416
:101AD0008D0B3E016E187F0841E050E0B501C30157
:101AE0000E948D0B5801AC18BD0841E050E0B501D3
:101AF000C4010E948D0B41E050E0B501C3010E947A
:101B00008D0B5801AE0CBF1C46018C0E9D1E41E092
:101B100050E0B501C4010E948D0BCC19DD0941E0F4
:101B200050E0B501CE010E948D0B0E191F0941E056
:101B300050E0B801C4010E948D0B41E050E0B801B3
:101B4000CE010E948D0BDF91CF911F910F91FF90DD
:101B5000EF90DF90CF90BF90AF909F908F907F904D
:101B60006F9008958F929F92AF92BF92CF92DF9223
:101B7000EF92FF920F931F93CF93DF936C015B0162
:101B80008A019A01220F331F83E090E04C01821AF0
:101B9000930A9A0140E050E0C6010E944B0D1123C8
:101BA0006CF16894EE24E2F8F12CC0E0D0E02196CC
:101BB0001814190484F401501109CE01801B910BF3
:101BC000880F991F880F991F880D991D4C012AE0D5
:101BD000820E911C07C0C701880D991D4C0126E09B
:101BE000820E911C9801AE01B501C6010E944B0DF9
:101BF00084E0E80EF11C0C171D07CCF6DF91CF91A5
:101C00001F910F91FF90EF90DF90CF90BF90AF901A
:101C10009F908F90089587B3806A87BB81E58DB9C7
:101C200008958FB9779BFECF08958FB1089510BCAA
:101C30008FE189B988E18AB98EE880BD08955D9BFE
:101C4000FECF8CB908955F9BFECF8CB1089585B708
:101C5000806885BF80B7877C80BF80B7806280BF87
:101C60000895FB01F85E808300000895985EFC01F2
:101C7000808108950E94B40F60F080E891E009F43B
:101C80009EEF0E94BB0F28F040E851E071F45EEF38
:101C90000CC00C948A0F0C94F50FE92FE0780E9489
:101CA000D30F40F3092E052AB1F32617370748074B
:101CB000590738F00E2E07F8E02569F0E025E064BA
:101CC0000AC0EF6307F8009407FADB01B9019D0130
:101CD000DC01CA01AD01EF930E94C80E0E94C20F41
:101CE0000E947D0E5F91552339F02BED3FE049E4D2
:101CF00050FD49EC0C947B100895DF93DD27B92F3C
:101D0000BF7740E85FE31616170648075B0718F42D
:101D1000D92F0E9401109F938F937F936F930E94FE
:101D20007610E0E7F0E00E948D0F0E94C20F2F9125
:101D30003F914F915F910E941C10DD2351F090580C
:101D4000A2EA2AED3FE049EC5FE3D0785D270E94EC
:101D50009210DF910C94C20F0E94600F08F481E092
:101D600008950E94C50E0C94C20F0E94BB0F58F03C
:101D70000E94B40F40F029F45F3F29F00C94840FC7
:101D800051110C94F60F0C948A0F0E94D30F68F334
:101D90009923B1F3552391F3951B550BBB27AA2724
:101DA00062177307840738F09F5F5F4F220F331F5E
:101DB000441FAA1FA9F335D00E2E3AF0E0E832D026
:101DC00091505040E695001CCAF72BD0FE2F29D029
:101DD000660F771F881FBB1F261737074807AB07FB
:101DE000B0E809F0BB0B802DBF01FF2793585F4F70
:101DF0003AF09E3F510578F00C94840F0C94F60F46
:101E00005F3FE4F3983ED4F3869577956795B79551
:101E1000F7959F5FC9F7880F911D9695879597F95C
:101E20000895E1E0660F771F881FBB1F62177307D5
:101E30008407BA0720F0621B730B840BBA0BEE1FEA
:101E400088F7E0950895E89409C097FB3EF49095D3
:101E50008095709561957F4F8F4F9F4F9923A9F083
:101E6000F92F96E9BB279395F69587957795679512
:101E7000B795F111F8CFFAF4BB0F11F460FF1BC056
:101E80006F5F7F4F8F4F9F4F16C0882311F096E9E9
:101E900011C0772321F09EE8872F762F05C0662397
:101EA00071F096E8862F70E060E02AF09A95660F50
:101EB000771F881FDAF7880F9695879597F9089509
:101EC000990F0008550FAA0BE0E8FEEF161617064B
:101ED000E807F907C0F012161306E407F50798F0B3
:101EE000621B730B840B950B39F40A2661F0232BCC
:101EF000242B252B21F408950A2609F4A140A69548
:101F00008FEF811D811D089597F99F6780E870E02C
:101F100060E008959FEF80EC0895DF93CF931F93C7
:101F20000F93FF92EF92DF927B018C01689406C0C1
:101F3000DA2EEF010E941C10FE01E894A591259174
:101F4000359145915591A6F3EF010E949210FE0143
:101F50009701A801DA9469F7DF90EF90FF900F9155
:101F60001F91CF91DF91089500240A941616170649
:101F700018060906089500240A941216130614067A
:101F800005060895092E0394000C11F4882352F0DD
:101F9000BB0F40F4BF2B11F460FF04C06F5F7F4F95
:101FA0008F4F9F4F089557FD9058440F551F59F07C
:101FB0005F3F71F04795880F97FB991F61F09F3F36
:101FC00079F087950895121613061406551FF2CF5F
:101FD0004695F1DF08C0161617061806991FF1CFAF
:101FE00086957105610508940895E894BB276627D6
:101FF0007727CB0197F908950E94600F08F48FEFBF
:1020000008959B01AC0160E070E080E89FE30C94D0
:10201000B10E0E941C100C94C20F0E94B40F38F035
:102020000E94BB0F20F0952311F00C94840F0C94A8
:102030008A0F11240C94F60F0E94D30F70F3959F12
:10204000C1F3950F50E0551F629FF001729FBB27AF
:10205000F00DB11D639FAA27F00DB11DAA1F649F4B
:102060006627B00DA11D661F829F2227B00DA11DFE
:10207000621F739FB00DA11D621F839FA00D611D84
:10208000221F749F3327A00D611D231F849F600DA5
:10209000211D822F762F6A2F11249F5750409AF0CE
:1020A000F1F088234AF0EE0FFF1FBB1F661F771F5A
:1020B000881F91505040A9F79E3F510580F00C9425
:1020C000840F0C94F60F5F3FE4F3983ED4F38695AB
:1020D00077956795B795F795E7959F5FC1F7FE2BC5
:1020E000880F911D9695879597F908959B01AC01EE
:1020F0000C9409105058BB27AA270E9492100C94E8
:10210000C20F0E94B40F38F00E94BB0F20F039F4C8
:102110009F3F19F426F40C948A0F0EF4E095E7FB28
:102120000C94840FE92F0E94D30F58F3BA1762075B
:1021300073078407950720F079F4A6F50C94F50F42
:102140000EF4E0950B2EBA2FA02D0B01B9019001D2
:102150000C01CA01A0011124FF27591B99F0593F16
:1021600050F4503E68F11A16F040A22F232F342F5E
:102170004427585FF3CF469537952795A795F040AC
:102180005395C9F77EF41F16BA0B620B730B840BC1
:10219000BAF09150A1F0FF0FBB1F661F771F881F79
:1021A000C2F70EC0BA0F621F731F841F48F48795D1
:1021B00077956795B795F7959E3F08F0B0CF9395C3
:1021C000880F08F09927EE0F97958795089597FB4C
:1021D000072E16F4009407D077FD09D00E94FB105B
:1021E00007FC05D03EF4909581959F4F089570951A
:1021F00061957F4F0895AA1BBB1B51E107C0AA1F21
:10220000BB1FA617B70710F0A61BB70B881F991F97
:102210005A95A9F780959095BC01CD0108950F932B
:102220001F93CF93DF938230910510F482E090E00A
:10223000E0915902F0915A0220E030E0A0E0B0E0D5
:10224000309719F140815181028113814817590754
:10225000C8F08417950769F4109731F012960C9323
:10226000129713961C9327C00093590210935A0299
:1022700022C02115310519F04217530718F49A01AD
:10228000BD01EF01DF01F801DBCF21153105F9F0C8
:10229000281B390B2430310580F48A819B8161151C
:1022A000710521F0FB019383828304C090935A024D
:1022B00080935902FE01329644C0FE01E20FF31FE3
:1022C0008193919322503109398328833AC0209118
:1022D000570230915802232B41F420910201309192
:1022E000030130935802209357022091000130914E
:1022F00001012115310541F42DB73EB7409104018C
:1023000050910501241B350BE0915702F0915802C2
:10231000E217F307A0F42E1B3F0B2817390778F0BC
:10232000AC014E5F5F4F2417350748F04E0F5F1F1B
:1023300050935802409357028193919302C0E0E07A
:10234000F0E0CF01DF91CF911F910F910895CF93CE
:10235000DF93009709F481C0FC0132971382128247
:10236000A0915902B0915A02109781F420813181D5
:10237000820F931F20915702309158022817390776
:1023800051F5F0935802E093570267C0ED0120E049
:1023900030E0CE17DF0740F44A815B819E01411592
:1023A0005105F1F0EA01F5CFD383C2834081518119
:1023B000840F951FC817D90759F488819981840F14
:1023C000951F0296918380838A819B819383828368
:1023D0002115310529F4F0935A02E09359023DC0CA
:1023E000E901FB83EA8349915991C40FD51FEC178A
:1023F000FD0761F480819181840F951F0296E901A8
:1024000099838883828193819B838A83E0E0F0E0D3
:1024100012968D919C911397009719F0FD01DC01A4
:10242000F7CF8D919C9111979D012E5F3F4F820FA9
:10243000931F20915702309158022817390769F4E9
:10244000309729F410925A021092590202C0138256
:102450001282B0935802A0935702DF91CF91089552
:10246000BB274A3031F4992322F4BDE2909581953F
:102470009F4F0C943C12BB27FB015527AA27880FBE
:10248000991FAA1FA41710F0A41B83955051B9F7E8
:10249000A05DAA3308F0A95DA193009779F7B11167
:1024A000B1931192CB010C949214A0E0B0E0EBE553
:1024B000F2E10C944C15AE014B5F5F4FFA01619154
:1024C0007191AF0180915D0290915E020E949B121A
:1024D000E2E00C9468150F931F93CF93DF93E09184
:1024E0005D02F0915E02238121FF1BC08C01D0E0D0
:1024F000C0E0F80181918F0160915D0270915E02F0
:10250000DB011896ED91FC911997882331F009951C
:10251000892B79F3DFEFCFEFECCF8AE00995892B98
:1025200019F08FEF9FEF02C08D2F9C2FDF91CF917D
:102530001F910F910895ABE0B0E0E1EAF2E10C9455
:102540003C156C017B018A01FC0117821682838194
:1025500081FFCCC1CE0101963C01F6019381F701C8
:1025600093FD859193FF81917F01882309F4BAC17E
:10257000853239F493FD859193FF81917F018532F6
:1025800029F4B60190E00E94A214E7CF912C212CEF
:10259000312CFFE1F315D8F08B3279F038F480322A
:1025A00079F08332A1F4232D20611DC08D3261F0BA
:1025B000803369F4232D216016C0832D8260382E6C
:1025C000E32DE4603E2E2AC0F32DF8601DC037FCD9
:1025D0002DC020ED280F2A3040F08E32B9F436FCA1
:1025E00081C1232D2064322E19C036FE06C08AE038
:1025F000989E200D1124922E11C0EAE02E9E200DEF
:102600001124222EF32DF0623F2E08C08C3621F4C7
:10261000832D8068382E02C0883641F4F70193FD7F
:10262000859193FF81917F018111B3CF982F9F7D79
:102630009554933028F40C5F1F4F9FE399830DC08E
:10264000833631F0833771F0833509F059C021C0EA
:10265000F801808189830E5F1F4F88248394912C19
:10266000530113C02801F2E04F0E511CF801A08065
:10267000B18036FE03C0692D70E002C06FEF7FEFBE
:10268000C5010E9487144C018201F32DFF773F2E74
:1026900016C0280122E0420E511CF801A080B18032
:1026A00036FE03C0692D70E002C06FEF7FEFC501F9
:1026B0000E947C144C01F32DF0683F2E820133FC04
:1026C0001BC0822D90E088169906B0F4B60180E216
:1026D00090E00E94A2142A94F4CFF50137FC859172
:1026E00037FE81915F01B60190E00E94A214211093
:1026F0002A9421E0821A91088114910471F7E8C0AC
:10270000843611F0893641F5F80137FE07C0608143
:102710007181828193810C5F1F4F08C0608171813C
:10272000072E000C880B990B0E5F1F4FF32DFF76C1
:102730003F2E97FF09C090958095709561957F4FCA
:102740008F4F9F4FF0683F2E2AE030E0A3010E9498
:10275000DE14882E861845C0853731F4232D2F7E50
:10276000B22E2AE030E025C0932D997FB92E8F3606
:10277000C1F018F4883579F0B5C0803719F0883782
:1027800021F0B0C0E92FE061BE2EB4FE0DC0FB2DDC
:10279000F460BF2E09C034FE0AC0292F2660B22E75
:1027A00006C028E030E005C020E130E002C020E1B2
:1027B00032E0F801B7FE07C06081718182819381A8
:1027C0000C5F1F4F06C06081718180E090E00E5F5A
:1027D0001F4FA3010E94DE14882E8618FB2DFF7761
:1027E0003F2E36FE0DC0232D2E7FA22E891458F4C5
:1027F00034FE0BC032FC09C0832D8E7EA82E05C08E
:10280000B82CA32C03C0B82C01C0B92CA4FE0FC057
:10281000FE01E80DF11D8081803321F49A2D997E0F
:10282000A92E09C0A2FE06C0B394B39404C08A2D99
:10283000867809F0B394A3FC11C0A0FE06C0B214C0
:1028400088F4280C922C9B180EC0B21460F4B601C8
:1028500080E290E00E94A214B394F7CFB21418F46F
:102860002B1802C0982C212CA4FE10C0B60180E3C6
:1028700090E00E94A214A2FE17C0A1FC03C088E74A
:1028800090E002C088E590E0B6010CC08A2D867801
:1028900059F0A1FE02C08BE201C080E2A7FC8DE2EC
:1028A000B60190E00E94A214891438F4B60180E3C6
:1028B00090E00E94A2149A94F7CF8A94F301E80D55
:1028C000F11D8081B60190E00E94A2148110F5CF25
:1028D000222009F442CEB60180E290E00E94A214C8
:1028E0002A94F6CFF6018681978102C08FEF9FEF81
:1028F0002B96E2E10C945815FC0105906150704054
:102900000110D8F7809590958E0F9F1F0895FC01B8
:102910006150704001900110D8F7809590958E0F0E
:102920009F1F0895DC01FC01672F71917723E1F768
:10293000329704C07C916D9370836291AE17BF078C
:10294000C8F308950F931F93CF93DF93FB01238167
:1029500021FD03C08FEF9FEF2CC022FF16C04681E0
:102960005781248135814217530744F4A081B181F6
:102970009D012F5F3F4F318320838C9326813781C8
:102980002F5F3F4F3783268314C08B01EC01FB017F
:102990000084F185E02D0995892BE1F6D801169682
:1029A0008D919C911797019617969C938E931697ED
:1029B000CE01DF91CF911F910F910895FA01AA27BF
:1029C000283051F1203181F1E8946F936E7F6E5F72
:1029D0007F4F8F4F9F4FAF4FB1E03ED0B4E03CD020
:1029E000670F781F891F9A1FA11D680F791F8A1F03
:1029F000911DA11D6A0F711D811D911DA11D20D06A
:102A000009F468943F912AE0269F11243019305D23
:102A10003193DEF6CF010895462F4770405D419314
:102A2000B3E00FD0C9F7F6CF462F4F70405D4A3361
:102A300018F0495D31FD4052419302D0A9F7EACF29
:102A4000B4E0A6959795879577956795BA95C9F758
:102A500000976105710508959B01AC010A2E06944B
:102A60005795479537952795BA95C9F7620F731F04
:102A7000841F951FA01D08952F923F924F925F9241
:102A80006F927F928F929F92AF92BF92CF92DF927E
:102A9000EF92FF920F931F93CF93DF93CDB7DEB7E3
:102AA000CA1BDB0B0FB6F894DEBF0FBECDBF099477
:102AB0002A88398848885F846E847D848C849B84CE
:102AC000AA84B984C884DF80EE80FD800C811B81DC
:102AD000AA81B981CE0FD11D0FB6F894DEBF0FBE0B
:0A2AE000CDBFED010895F894FFCF7B
:102AEA000000610220004D435032353135206973B0
:102AFA00204E4F5420696E206E6F726D616C206D8E
:102B0A006F64652E0A0D004D7367202564203D20F1
:102B1A0025782C2049443A2025780A0D0050726500
:102B2A00737320746865206A6F79737469636B2E96
:102B3A0000566572696669636174696F6E206F66B3
:102B4A0020554152540D004D4350323531352069DC
:102B5A0073204E4F5420696E20636F6E666967203A
:102B6A006D6F64652E0A0D002020506C617920205B
:102B7A000053657474696E6773004372656469749F
:102B8A007320004A6F79737469636B00536C6964CC
:102B9A00657220004A6F7963616C0044756D6D79C6
:102BAA0000507265737320746F20726573756D655A
:102BBA002E00506F696E7473206C6F73743A200024
:102BCA005465616D2045706963616C79783A2000BB
:102BDA0056656761726420486172616C64737461DE
:102BEA00640054686F6D617320426F726765004DAF
:102BFA00696B61656C204D6564696E6100506C6536
:102C0A00617365206C657420676F206F6620746835
:102C1A0065206A6F79737469636B004A6F7973749C
:102C2A0069636B2063616C69627261746564000038
:00000001FF
